:1000000016EF00F0EA6A050EE96EEF500DE0060EFD
:10001000016E006A002EFED7012EFBD77B0E006E0C
:10002000002EFED7EF2EF3D7ABEF00F0F86AD09E8C
:10003000C150C00B0F09C16E070EB46EC150C00B8A
:100040000F09C16EC050C00BC06EC09EC280969892
:10005000C69A949E93809392010EC66E000EC76E50
:10006000D190800ED56ECD6A000ECA6E000ECB6E9A
:10007000B16A070EB46E9250926E100E006E002E92
:10008000FED70000B450A19CB56A93908A809392E9
:100090008A9293948A9493968A9681A804D0956ABA
:1000A000010E8C6E0BD081AA04D0956A020E8C6E64
:1000B00005D081AC03D0956A030E8C6E93908A9024
:1000C00093928A8293948A9493968A9681A804D074
:1000D000956A040E8C6E0BD081AA04D0956A050E29
:1000E0008C6E05D081AC03D0956A060E8C6E939011
:1000F0008A9093928A9293948A8493968A9681A8FE
:1001000004D0956A070E8C6E0BD081AA04D0956A34
:10011000080E8C6E05D081AC03D0956A090E8C6EEA
:1001200093908A9093928A9293948A9493968A86D3
:1001300081A804D0956A0C0E8C6E0AD081AA03D0D7
:10014000956A8C6A05D081AC03D0956A0A0E8C6ED4
:0A015000640E056E57D799D703001F
:020000040030CA
:0E0000003FC0390E0007A1000FC00FE00F40F7
:00000001FF
;PIC18F4550
;CRC=06EF  CREATED="03-nov-17 13:33"
